{
  "contractName": "TaskToken",
  "abi": [
    {
      "inputs": [],
      "stateMutability": "nonpayable",
      "type": "constructor"
    },
    {
      "anonymous": false,
      "inputs": [
        {
          "indexed": true,
          "internalType": "address",
          "name": "_owner",
          "type": "address"
        },
        {
          "indexed": true,
          "internalType": "address",
          "name": "_spender",
          "type": "address"
        },
        {
          "indexed": false,
          "internalType": "uint256",
          "name": "_value",
          "type": "uint256"
        }
      ],
      "name": "Approval",
      "type": "event"
    },
    {
      "anonymous": false,
      "inputs": [
        {
          "indexed": true,
          "internalType": "uint256",
          "name": "_taskId",
          "type": "uint256"
        },
        {
          "indexed": true,
          "internalType": "address",
          "name": "_owner",
          "type": "address"
        }
      ],
      "name": "NewTaskInStaking",
      "type": "event"
    },
    {
      "anonymous": false,
      "inputs": [
        {
          "indexed": true,
          "internalType": "address",
          "name": "_user",
          "type": "address"
        },
        {
          "indexed": false,
          "internalType": "string",
          "name": "_username",
          "type": "string"
        }
      ],
      "name": "SignedUpUser",
      "type": "event"
    },
    {
      "anonymous": false,
      "inputs": [
        {
          "indexed": true,
          "internalType": "uint256",
          "name": "_taskId",
          "type": "uint256"
        },
        {
          "indexed": true,
          "internalType": "address",
          "name": "_finisher",
          "type": "address"
        }
      ],
      "name": "TaskDeletedFromStaking",
      "type": "event"
    },
    {
      "anonymous": false,
      "inputs": [
        {
          "indexed": true,
          "internalType": "address",
          "name": "_from",
          "type": "address"
        },
        {
          "indexed": true,
          "internalType": "address",
          "name": "_to",
          "type": "address"
        },
        {
          "indexed": false,
          "internalType": "uint256",
          "name": "_value",
          "type": "uint256"
        }
      ],
      "name": "Transfer",
      "type": "event"
    },
    {
      "inputs": [
        {
          "internalType": "address",
          "name": "",
          "type": "address"
        },
        {
          "internalType": "address",
          "name": "",
          "type": "address"
        }
      ],
      "name": "allowed",
      "outputs": [
        {
          "internalType": "uint256",
          "name": "",
          "type": "uint256"
        }
      ],
      "stateMutability": "view",
      "type": "function",
      "constant": true
    },
    {
      "inputs": [
        {
          "internalType": "address",
          "name": "",
          "type": "address"
        }
      ],
      "name": "balances",
      "outputs": [
        {
          "internalType": "uint256",
          "name": "",
          "type": "uint256"
        }
      ],
      "stateMutability": "view",
      "type": "function",
      "constant": true
    },
    {
      "inputs": [],
      "name": "decimals",
      "outputs": [
        {
          "internalType": "uint8",
          "name": "",
          "type": "uint8"
        }
      ],
      "stateMutability": "view",
      "type": "function",
      "constant": true
    },
    {
      "inputs": [],
      "name": "name",
      "outputs": [
        {
          "internalType": "string",
          "name": "",
          "type": "string"
        }
      ],
      "stateMutability": "view",
      "type": "function",
      "constant": true
    },
    {
      "inputs": [],
      "name": "symbol",
      "outputs": [
        {
          "internalType": "string",
          "name": "",
          "type": "string"
        }
      ],
      "stateMutability": "view",
      "type": "function",
      "constant": true
    },
    {
      "inputs": [
        {
          "internalType": "uint256",
          "name": "",
          "type": "uint256"
        }
      ],
      "name": "taskOwner",
      "outputs": [
        {
          "internalType": "bool",
          "name": "status",
          "type": "bool"
        },
        {
          "internalType": "bool",
          "name": "onStaking",
          "type": "bool"
        },
        {
          "internalType": "address",
          "name": "owner",
          "type": "address"
        },
        {
          "internalType": "bool",
          "name": "deleted",
          "type": "bool"
        }
      ],
      "stateMutability": "view",
      "type": "function",
      "constant": true
    },
    {
      "inputs": [],
      "name": "tokenOfferCotation",
      "outputs": [
        {
          "internalType": "uint256",
          "name": "",
          "type": "uint256"
        }
      ],
      "stateMutability": "view",
      "type": "function",
      "constant": true
    },
    {
      "inputs": [],
      "name": "tokenTradeCotation",
      "outputs": [
        {
          "internalType": "uint256",
          "name": "",
          "type": "uint256"
        }
      ],
      "stateMutability": "view",
      "type": "function",
      "constant": true
    },
    {
      "inputs": [],
      "name": "totalSupply",
      "outputs": [
        {
          "internalType": "uint256",
          "name": "",
          "type": "uint256"
        }
      ],
      "stateMutability": "view",
      "type": "function",
      "constant": true
    },
    {
      "inputs": [
        {
          "internalType": "address",
          "name": "_to",
          "type": "address"
        },
        {
          "internalType": "uint256",
          "name": "_value",
          "type": "uint256"
        }
      ],
      "name": "transfer",
      "outputs": [
        {
          "internalType": "bool",
          "name": "success",
          "type": "bool"
        }
      ],
      "stateMutability": "nonpayable",
      "type": "function"
    },
    {
      "inputs": [
        {
          "internalType": "address",
          "name": "_from",
          "type": "address"
        },
        {
          "internalType": "address",
          "name": "_to",
          "type": "address"
        },
        {
          "internalType": "uint256",
          "name": "_value",
          "type": "uint256"
        }
      ],
      "name": "transferFrom",
      "outputs": [
        {
          "internalType": "bool",
          "name": "success",
          "type": "bool"
        }
      ],
      "stateMutability": "nonpayable",
      "type": "function"
    },
    {
      "inputs": [
        {
          "internalType": "address",
          "name": "_spender",
          "type": "address"
        },
        {
          "internalType": "uint256",
          "name": "_value",
          "type": "uint256"
        }
      ],
      "name": "approve",
      "outputs": [
        {
          "internalType": "bool",
          "name": "success",
          "type": "bool"
        }
      ],
      "stateMutability": "nonpayable",
      "type": "function"
    },
    {
      "inputs": [
        {
          "internalType": "address",
          "name": "_owner",
          "type": "address"
        },
        {
          "internalType": "address",
          "name": "_spender",
          "type": "address"
        }
      ],
      "name": "allowance",
      "outputs": [
        {
          "internalType": "uint256",
          "name": "remaining",
          "type": "uint256"
        }
      ],
      "stateMutability": "view",
      "type": "function",
      "constant": true
    },
    {
      "inputs": [
        {
          "internalType": "address",
          "name": "_owner",
          "type": "address"
        }
      ],
      "name": "balanceOf",
      "outputs": [
        {
          "internalType": "uint256",
          "name": "balance",
          "type": "uint256"
        }
      ],
      "stateMutability": "view",
      "type": "function",
      "constant": true
    },
    {
      "inputs": [
        {
          "internalType": "uint256",
          "name": "_newCotation",
          "type": "uint256"
        }
      ],
      "name": "changeTokenOfferCotation",
      "outputs": [],
      "stateMutability": "nonpayable",
      "type": "function"
    },
    {
      "inputs": [],
      "name": "changeBuyAvailability",
      "outputs": [],
      "stateMutability": "nonpayable",
      "type": "function"
    },
    {
      "inputs": [
        {
          "internalType": "uint256",
          "name": "_amount",
          "type": "uint256"
        }
      ],
      "name": "buyFromContract",
      "outputs": [],
      "stateMutability": "payable",
      "type": "function",
      "payable": true
    },
    {
      "inputs": [
        {
          "internalType": "string",
          "name": "_username",
          "type": "string"
        }
      ],
      "name": "userSignedUp",
      "outputs": [],
      "stateMutability": "nonpayable",
      "type": "function"
    },
    {
      "inputs": [
        {
          "internalType": "uint256",
          "name": "_taskId",
          "type": "uint256"
        }
      ],
      "name": "addTaskToStaking",
      "outputs": [],
      "stateMutability": "nonpayable",
      "type": "function"
    },
    {
      "inputs": [
        {
          "internalType": "uint256",
          "name": "_taskId",
          "type": "uint256"
        }
      ],
      "name": "finishTask",
      "outputs": [],
      "stateMutability": "nonpayable",
      "type": "function"
    },
    {
      "inputs": [
        {
          "internalType": "uint256",
          "name": "_taskId",
          "type": "uint256"
        }
      ],
      "name": "taskIsInStaking",
      "outputs": [
        {
          "internalType": "bool",
          "name": "isInStaking",
          "type": "bool"
        }
      ],
      "stateMutability": "view",
      "type": "function",
      "constant": true
    }
  ],
  "bytecode": "0x6080604052633b9aca006002556001600360006101000a81548160ff0219169083151502179055506040518060400160405280600981526020017f5461736b546f6b656e0000000000000000000000000000000000000000000000815250600790805190602001906200007492919062000217565b506012600860006101000a81548160ff021916908360ff1602179055506040518060400160405280600481526020017f54534b540000000000000000000000000000000000000000000000000000000081525060099080519060200190620000de92919062000217565b50348015620000ec57600080fd5b5033600360016101000a81548173ffffffffffffffffffffffffffffffffffffffff021916908373ffffffffffffffffffffffffffffffffffffffff1602179055506311e1a3006000803373ffffffffffffffffffffffffffffffffffffffff1673ffffffffffffffffffffffffffffffffffffffff168152602001908152602001600020819055506000803373ffffffffffffffffffffffffffffffffffffffff1673ffffffffffffffffffffffffffffffffffffffff16815260200190815260200160002054600254620001c3919062000300565b6000803073ffffffffffffffffffffffffffffffffffffffff1673ffffffffffffffffffffffffffffffffffffffff1681526020019081526020016000208190555064e8d4a51000600481905550620003a0565b82805462000225906200036a565b90600052602060002090601f01602090048101928262000249576000855562000295565b82601f106200026457805160ff191683800117855562000295565b8280016001018555821562000295579182015b828111156200029457825182559160200191906001019062000277565b5b509050620002a49190620002a8565b5090565b5b80821115620002c3576000816000905550600101620002a9565b5090565b6000819050919050565b7f4e487b7100000000000000000000000000000000000000000000000000000000600052601160045260246000fd5b60006200030d82620002c7565b91506200031a83620002c7565b92508282101562000330576200032f620002d1565b5b828203905092915050565b7f4e487b7100000000000000000000000000000000000000000000000000000000600052602260045260246000fd5b600060028204905060018216806200038357607f821691505b602082108114156200039a57620003996200033b565b5b50919050565b61267480620003b06000396000f3fe60806040526004361061012a5760003560e01c806370a08231116100ab578063a59e1ad61161006f578063a59e1ad61461041d578063a74214fe14610448578063a9059cbb14610471578063dd62ed3e146104ae578063eab628aa146104eb578063fa482ae3146105145761012a565b806370a0823114610338578063737225e314610375578063842178b2146103a05780639183164e146103c957806395d89b41146103f25761012a565b806327e235e3116100f257806327e235e31461023f578063313ce5671461027c578063370f267e146102a7578063463a0302146102be5780635c658165146102fb5761012a565b806306fdde031461012f57806308bd15591461015a578063095ea7b31461019a57806318160ddd146101d757806323b872dd14610202575b600080fd5b34801561013b57600080fd5b50610144610530565b604051610151919061192b565b60405180910390f35b34801561016657600080fd5b50610181600480360381019061017c9190611997565b6105be565b6040516101919493929190611a20565b60405180910390f35b3480156101a657600080fd5b506101c160048036038101906101bc9190611a91565b610635565b6040516101ce9190611ad1565b60405180910390f35b3480156101e357600080fd5b506101ec610727565b6040516101f99190611afb565b60405180910390f35b34801561020e57600080fd5b5061022960048036038101906102249190611b16565b61072d565b6040516102369190611ad1565b60405180910390f35b34801561024b57600080fd5b5061026660048036038101906102619190611b69565b610a13565b6040516102739190611afb565b60405180910390f35b34801561028857600080fd5b50610291610a2b565b60405161029e9190611bb2565b60405180910390f35b3480156102b357600080fd5b506102bc610a3e565b005b3480156102ca57600080fd5b506102e560048036038101906102e09190611997565b610afa565b6040516102f29190611ad1565b60405180910390f35b34801561030757600080fd5b50610322600480360381019061031d9190611bcd565b610b27565b60405161032f9190611afb565b60405180910390f35b34801561034457600080fd5b5061035f600480360381019061035a9190611b69565b610b4c565b60405161036c9190611afb565b60405180910390f35b34801561038157600080fd5b5061038a610b94565b6040516103979190611afb565b60405180910390f35b3480156103ac57600080fd5b506103c760048036038101906103c29190611997565b610b9a565b005b3480156103d557600080fd5b506103f060048036038101906103eb9190611997565b610d0e565b005b3480156103fe57600080fd5b50610407610da8565b604051610414919061192b565b60405180910390f35b34801561042957600080fd5b50610432610e36565b60405161043f9190611afb565b60405180910390f35b34801561045457600080fd5b5061046f600480360381019061046a9190611997565b610e3c565b005b34801561047d57600080fd5b5061049860048036038101906104939190611a91565b611098565b6040516104a59190611ad1565b60405180910390f35b3480156104ba57600080fd5b506104d560048036038101906104d09190611bcd565b611234565b6040516104e29190611afb565b60405180910390f35b3480156104f757600080fd5b50610512600480360381019061050d9190611d42565b6112bb565b005b61052e60048036038101906105299190611997565b61130c565b005b6007805461053d90611dba565b80601f016020809104026020016040519081016040528092919081815260200182805461056990611dba565b80156105b65780601f1061058b576101008083540402835291602001916105b6565b820191906000526020600020905b81548152906001019060200180831161059957829003601f168201915b505050505081565b60066020528060005260406000206000915090508060000160009054906101000a900460ff16908060000160019054906101000a900460ff16908060020160009054906101000a900473ffffffffffffffffffffffffffffffffffffffff16908060020160149054906101000a900460ff16905084565b600081600160003373ffffffffffffffffffffffffffffffffffffffff1673ffffffffffffffffffffffffffffffffffffffff16815260200190815260200160002060008573ffffffffffffffffffffffffffffffffffffffff1673ffffffffffffffffffffffffffffffffffffffff168152602001908152602001600020819055508273ffffffffffffffffffffffffffffffffffffffff163373ffffffffffffffffffffffffffffffffffffffff167f8c5be1e5ebec7d5bd14f71427d1e84f3dd0314c0f7b2291e5b200ac8c7c3b925846040516107159190611afb565b60405180910390a36001905092915050565b60025481565b600080600160008673ffffffffffffffffffffffffffffffffffffffff1673ffffffffffffffffffffffffffffffffffffffff16815260200190815260200160002060003373ffffffffffffffffffffffffffffffffffffffff1673ffffffffffffffffffffffffffffffffffffffff168152602001908152602001600020549050826000808773ffffffffffffffffffffffffffffffffffffffff1673ffffffffffffffffffffffffffffffffffffffff16815260200190815260200160002054101580156107fd5750828110155b61083c576040517f08c379a000000000000000000000000000000000000000000000000000000000815260040161083390611e5e565b60405180910390fd5b826000808673ffffffffffffffffffffffffffffffffffffffff1673ffffffffffffffffffffffffffffffffffffffff168152602001908152602001600020600082825461088a9190611ead565b92505081905550826000808773ffffffffffffffffffffffffffffffffffffffff1673ffffffffffffffffffffffffffffffffffffffff16815260200190815260200160002060008282546108df9190611f03565b925050819055507fffffffffffffffffffffffffffffffffffffffffffffffffffffffffffffffff8110156109a25782600160008773ffffffffffffffffffffffffffffffffffffffff1673ffffffffffffffffffffffffffffffffffffffff16815260200190815260200160002060003373ffffffffffffffffffffffffffffffffffffffff1673ffffffffffffffffffffffffffffffffffffffff168152602001908152602001600020600082825461099a9190611f03565b925050819055505b8373ffffffffffffffffffffffffffffffffffffffff168573ffffffffffffffffffffffffffffffffffffffff167fddf252ad1be2c89b69c2b068fc378daa952ba7f163c4a11628f55a4df523b3ef856040516109ff9190611afb565b60405180910390a360019150509392505050565b60006020528060005260406000206000915090505481565b600860009054906101000a900460ff1681565b600360019054906101000a900473ffffffffffffffffffffffffffffffffffffffff1673ffffffffffffffffffffffffffffffffffffffff163373ffffffffffffffffffffffffffffffffffffffff1614610ace576040517f08c379a0000000000000000000000000000000000000000000000000000000008152600401610ac590611fa9565b60405180910390fd5b600360009054906101000a900460ff1615600360006101000a81548160ff021916908315150217905550565b60006006600083815260200190815260200160002060000160019054906101000a900460ff169050919050565b6001602052816000526040600020602052806000526040600020600091509150505481565b60008060008373ffffffffffffffffffffffffffffffffffffffff1673ffffffffffffffffffffffffffffffffffffffff168152602001908152602001600020549050919050565b60045481565b6000610ba58261153e565b905080610be7576040517f08c379a0000000000000000000000000000000000000000000000000000000008152600401610bde90612015565b60405180910390fd5b60066000838152602001908152602001600020600080820160006101000a81549060ff02191690556000820160016101000a81549060ff0219169055600182016000610c339190611854565b6002820160006101000a81549073ffffffffffffffffffffffffffffffffffffffff02191690556002820160146101000a81549060ff0219169055505060016000803373ffffffffffffffffffffffffffffffffffffffff1673ffffffffffffffffffffffffffffffffffffffff1681526020019081526020016000206000828254610cbf9190611ead565b925050819055503373ffffffffffffffffffffffffffffffffffffffff16827feabc0d59d7062ce6b6b98ecedbffb77c9b651f65e520ee84e09184e6e603382d60405160405180910390a35050565b600360019054906101000a900473ffffffffffffffffffffffffffffffffffffffff1673ffffffffffffffffffffffffffffffffffffffff163373ffffffffffffffffffffffffffffffffffffffff1614610d9e576040517f08c379a0000000000000000000000000000000000000000000000000000000008152600401610d9590611fa9565b60405180910390fd5b8060048190555050565b60098054610db590611dba565b80601f0160208091040260200160405190810160405280929190818152602001828054610de190611dba565b8015610e2e5780601f10610e0357610100808354040283529160200191610e2e565b820191906000526020600020905b815481529060010190602001808311610e1157829003601f168201915b505050505081565b60055481565b3373ffffffffffffffffffffffffffffffffffffffff166006600083815260200190815260200160002060020160009054906101000a900473ffffffffffffffffffffffffffffffffffffffff1673ffffffffffffffffffffffffffffffffffffffff1614610ee0576040517f08c379a0000000000000000000000000000000000000000000000000000000008152600401610ed790612081565b60405180910390fd5b60016000803373ffffffffffffffffffffffffffffffffffffffff1673ffffffffffffffffffffffffffffffffffffffff168152602001908152602001600020541015610f62576040517f08c379a0000000000000000000000000000000000000000000000000000000008152600401610f5990612113565b60405180910390fd5b600015156006600083815260200190815260200160002060000160019054906101000a900460ff16151514610fcc576040517f08c379a0000000000000000000000000000000000000000000000000000000008152600401610fc39061217f565b60405180910390fd5b60016000803373ffffffffffffffffffffffffffffffffffffffff1673ffffffffffffffffffffffffffffffffffffffff168152602001908152602001600020600082825461101b9190611f03565b9250508190555060016006600083815260200190815260200160002060000160016101000a81548160ff0219169083151502179055503373ffffffffffffffffffffffffffffffffffffffff16817fe293ce8e62377b918d82c61f35f1c4813ab5fe0f7abe53c1594391445ef1d6be60405160405180910390a350565b6000816000803373ffffffffffffffffffffffffffffffffffffffff1673ffffffffffffffffffffffffffffffffffffffff16815260200190815260200160002054101561111b576040517f08c379a000000000000000000000000000000000000000000000000000000000815260040161111290612211565b60405180910390fd5b816000803373ffffffffffffffffffffffffffffffffffffffff1673ffffffffffffffffffffffffffffffffffffffff16815260200190815260200160002060008282546111699190611f03565b92505081905550816000808573ffffffffffffffffffffffffffffffffffffffff1673ffffffffffffffffffffffffffffffffffffffff16815260200190815260200160002060008282546111be9190611ead565b925050819055508273ffffffffffffffffffffffffffffffffffffffff163373ffffffffffffffffffffffffffffffffffffffff167fddf252ad1be2c89b69c2b068fc378daa952ba7f163c4a11628f55a4df523b3ef846040516112229190611afb565b60405180910390a36001905092915050565b6000600160008473ffffffffffffffffffffffffffffffffffffffff1673ffffffffffffffffffffffffffffffffffffffff16815260200190815260200160002060008373ffffffffffffffffffffffffffffffffffffffff1673ffffffffffffffffffffffffffffffffffffffff16815260200190815260200160002054905092915050565b3373ffffffffffffffffffffffffffffffffffffffff167fb134d8821525a9719b2028b015b62518a54c47b7feed806892b8318b76fd78e882604051611301919061192b565b60405180910390a250565b60011515600360009054906101000a900460ff16151514611362576040517f08c379a0000000000000000000000000000000000000000000000000000000008152600401611359906122a3565b60405180910390fd5b6004548161137091906122c3565b34101561137e6004546116cb565b60405160200161138e9190612417565b604051602081830303815290604052906113de576040517f08c379a00000000000000000000000000000000000000000000000000000000081526004016113d5919061192b565b60405180910390fd5b5060008060003073ffffffffffffffffffffffffffffffffffffffff1673ffffffffffffffffffffffffffffffffffffffff1681526020019081526020016000205490508181101561142f826116cb565b60405160200161143f9190612502565b6040516020818303038152906040529061148f576040517f08c379a0000000000000000000000000000000000000000000000000000000008152600401611486919061192b565b60405180910390fd5b50816000803373ffffffffffffffffffffffffffffffffffffffff1673ffffffffffffffffffffffffffffffffffffffff16815260200190815260200160002060008282546114de9190611ead565b92505081905550816000803073ffffffffffffffffffffffffffffffffffffffff1673ffffffffffffffffffffffffffffffffffffffff16815260200190815260200160002060008282546115339190611f03565b925050819055505050565b600080600660008481526020019081526020016000206001018054806020026020016040519081016040528092919081815260200182805480156115d757602002820191906000526020600020905b8160009054906101000a900473ffffffffffffffffffffffffffffffffffffffff1673ffffffffffffffffffffffffffffffffffffffff168152602001906001019080831161158d575b505050505090506000805b8251811015611651573373ffffffffffffffffffffffffffffffffffffffff168382815181106116155761161461252f565b5b602002602001015173ffffffffffffffffffffffffffffffffffffffff16141561163e57600191505b80806116499061255e565b9150506115e2565b506006600085815260200190815260200160002060020160009054906101000a900473ffffffffffffffffffffffffffffffffffffffff1673ffffffffffffffffffffffffffffffffffffffff163373ffffffffffffffffffffffffffffffffffffffff1614156116c157600190505b8092505050919050565b60606000821415611713576040518060400160405280600181526020017f3000000000000000000000000000000000000000000000000000000000000000815250905061184f565b600082905060005b6000821461174557808061172e9061255e565b915050600a8261173e91906125d6565b915061171b565b60008167ffffffffffffffff81111561176157611760611c17565b5b6040519080825280601f01601f1916602001820160405280156117935781602001600182028036833780820191505090505b50905060008290505b60008614611847576001816117b19190611f03565b90506000600a80886117c391906125d6565b6117cd91906122c3565b876117d89190611f03565b60306117e49190612607565b905060008160f81b9050808484815181106118025761180161252f565b5b60200101907effffffffffffffffffffffffffffffffffffffffffffffffffffffffffffff1916908160001a905350600a8861183e91906125d6565b9750505061179c565b819450505050505b919050565b50805460008255906000526020600020908101906118729190611875565b50565b5b8082111561188e576000816000905550600101611876565b5090565b600081519050919050565b600082825260208201905092915050565b60005b838110156118cc5780820151818401526020810190506118b1565b838111156118db576000848401525b50505050565b6000601f19601f8301169050919050565b60006118fd82611892565b611907818561189d565b93506119178185602086016118ae565b611920816118e1565b840191505092915050565b6000602082019050818103600083015261194581846118f2565b905092915050565b6000604051905090565b600080fd5b600080fd5b6000819050919050565b61197481611961565b811461197f57600080fd5b50565b6000813590506119918161196b565b92915050565b6000602082840312156119ad576119ac611957565b5b60006119bb84828501611982565b91505092915050565b60008115159050919050565b6119d9816119c4565b82525050565b600073ffffffffffffffffffffffffffffffffffffffff82169050919050565b6000611a0a826119df565b9050919050565b611a1a816119ff565b82525050565b6000608082019050611a3560008301876119d0565b611a4260208301866119d0565b611a4f6040830185611a11565b611a5c60608301846119d0565b95945050505050565b611a6e816119ff565b8114611a7957600080fd5b50565b600081359050611a8b81611a65565b92915050565b60008060408385031215611aa857611aa7611957565b5b6000611ab685828601611a7c565b9250506020611ac785828601611982565b9150509250929050565b6000602082019050611ae660008301846119d0565b92915050565b611af581611961565b82525050565b6000602082019050611b106000830184611aec565b92915050565b600080600060608486031215611b2f57611b2e611957565b5b6000611b3d86828701611a7c565b9350506020611b4e86828701611a7c565b9250506040611b5f86828701611982565b9150509250925092565b600060208284031215611b7f57611b7e611957565b5b6000611b8d84828501611a7c565b91505092915050565b600060ff82169050919050565b611bac81611b96565b82525050565b6000602082019050611bc76000830184611ba3565b92915050565b60008060408385031215611be457611be3611957565b5b6000611bf285828601611a7c565b9250506020611c0385828601611a7c565b9150509250929050565b600080fd5b600080fd5b7f4e487b7100000000000000000000000000000000000000000000000000000000600052604160045260246000fd5b611c4f826118e1565b810181811067ffffffffffffffff82111715611c6e57611c6d611c17565b5b80604052505050565b6000611c8161194d565b9050611c8d8282611c46565b919050565b600067ffffffffffffffff821115611cad57611cac611c17565b5b611cb6826118e1565b9050602081019050919050565b82818337600083830152505050565b6000611ce5611ce084611c92565b611c77565b905082815260208101848484011115611d0157611d00611c12565b5b611d0c848285611cc3565b509392505050565b600082601f830112611d2957611d28611c0d565b5b8135611d39848260208601611cd2565b91505092915050565b600060208284031215611d5857611d57611957565b5b600082013567ffffffffffffffff811115611d7657611d7561195c565b5b611d8284828501611d14565b91505092915050565b7f4e487b7100000000000000000000000000000000000000000000000000000000600052602260045260246000fd5b60006002820490506001821680611dd257607f821691505b60208210811415611de657611de5611d8b565b5b50919050565b7f746f6b656e2062616c616e6365206f7220616c6c6f77616e6365206973206c6f60008201527f776572207468616e20616d6f756e742072657175657374656400000000000000602082015250565b6000611e4860398361189d565b9150611e5382611dec565b604082019050919050565b60006020820190508181036000830152611e7781611e3b565b9050919050565b7f4e487b7100000000000000000000000000000000000000000000000000000000600052601160045260246000fd5b6000611eb882611961565b9150611ec383611961565b9250827fffffffffffffffffffffffffffffffffffffffffffffffffffffffffffffffff03821115611ef857611ef7611e7e565b5b828201905092915050565b6000611f0e82611961565b9150611f1983611961565b925082821015611f2c57611f2b611e7e565b5b828203905092915050565b7f4f6e6c792074686520636f6e7472616374206f776e65722063616e2063616c6c60008201527f2069740000000000000000000000000000000000000000000000000000000000602082015250565b6000611f9360238361189d565b9150611f9e82611f37565b604082019050919050565b60006020820190508181036000830152611fc281611f86565b9050919050565b7f596f75277265206e6f74206120636f6c61626f7261746f720000000000000000600082015250565b6000611fff60188361189d565b915061200a82611fc9565b602082019050919050565b6000602082019050818103600083015261202e81611ff2565b9050919050565b7f54686973207461736b20646f65736e27742062656c6f6e6720796f7500000000600082015250565b600061206b601c8361189d565b915061207682612035565b602082019050919050565b6000602082019050818103600083015261209a8161205e565b9050919050565b7f596f7520646f6e27742068617665205461736b546f6b656e7320656e6f75676860008201527f20746f20646f2074686973206f7065726174696f6e0000000000000000000000602082015250565b60006120fd60358361189d565b9150612108826120a1565b604082019050919050565b6000602082019050818103600083015261212c816120f0565b9050919050565b7f54686973207461736b20697320616c726561647920696e207374616b696e6700600082015250565b6000612169601f8361189d565b915061217482612133565b602082019050919050565b600060208201905081810360008301526121988161215c565b9050919050565b7f746f6b656e2062616c616e6365206973206c6f776572207468616e207468652060008201527f76616c7565207265717565737465640000000000000000000000000000000000602082015250565b60006121fb602f8361189d565b91506122068261219f565b604082019050919050565b6000602082019050818103600083015261222a816121ee565b9050919050565b7f596f752063616e27742062757920746f6b656e732066726f6d2074686520636f60008201527f6e747261637420666f72206e6f77000000000000000000000000000000000000602082015250565b600061228d602e8361189d565b915061229882612231565b604082019050919050565b600060208201905081810360008301526122bc81612280565b9050919050565b60006122ce82611961565b91506122d983611961565b9250817fffffffffffffffffffffffffffffffffffffffffffffffffffffffffffffffff048311821515161561231257612311611e7e565b5b828202905092915050565b600081905092915050565b7f4574686572207175616e7469747920696e73756666696369656e742e2045616360008201527f68205461736b546f6b656e2076616c7565733a20000000000000000000000000602082015250565b600061238460348361231d565b915061238f82612328565b603482019050919050565b60006123a582611892565b6123af818561231d565b93506123bf8185602086016118ae565b80840191505092915050565b7f2057656973202831305e2d313820455448290000000000000000000000000000600082015250565b600061240160128361231d565b915061240c826123cb565b601282019050919050565b600061242282612377565b915061242e828461239a565b9150612439826123f4565b915081905092915050565b7f546f6b656e7320616d6f756e7420756e617661696c61626c6520746f2062757960008201527f2e205468657265206973206f6e6c792000000000000000000000000000000000602082015250565b60006124a060308361231d565b91506124ab82612444565b603082019050919050565b7f20746f6b656e7300000000000000000000000000000000000000000000000000600082015250565b60006124ec60078361231d565b91506124f7826124b6565b600782019050919050565b600061250d82612493565b9150612519828461239a565b9150612524826124df565b915081905092915050565b7f4e487b7100000000000000000000000000000000000000000000000000000000600052603260045260246000fd5b600061256982611961565b91507fffffffffffffffffffffffffffffffffffffffffffffffffffffffffffffffff82141561259c5761259b611e7e565b5b600182019050919050565b7f4e487b7100000000000000000000000000000000000000000000000000000000600052601260045260246000fd5b60006125e182611961565b91506125ec83611961565b9250826125fc576125fb6125a7565b5b828204905092915050565b600061261282611b96565b915061261d83611b96565b92508260ff0382111561263357612632611e7e565b5b82820190509291505056fea264697066735822122026dcfc27b43a44179ffa848a08827586428773a73d773788af8aaa5e6358ca0064736f6c634300080a0033",
  "immutableReferences": {},
  "source": "// https://eips.ethereum.org/EIPS/eip-20\n// SPDX-License-Identifier: MIT\npragma solidity >=0.5.0 <0.9.0;\n\nimport \"./ITaskToken.sol\";\n\ncontract TaskToken is IERC20 {\n    uint256 constant private MAX_UINT256 = 2**256 - 1;\n    mapping (address => uint256) public balances;\n    mapping (address => mapping (address => uint256)) public allowed;\n    uint256 public totalSupply = 1000000000; //1.000.000.000\n    bool private offerAvailable = true;\n    address private owner;\n    uint256 public tokenOfferCotation;\n    uint256 public tokenTradeCotation;\n\n    mapping (uint256 => taskData) public taskOwner; //taskId => struct\n    struct taskData {\n        bool status;\n        bool onStaking;\n        address[] colaborators;\n        address owner;\n        bool deleted;\n    }\n\n    /*\n    NOTE:\n    The following variables are OPTIONAL vanities. One does not have to include them.\n    They allow one to customise the token contract & in no way influences the core functionality.\n    Some wallets/interfaces might not even bother to look at this information.\n    */\n    string public name = \"TaskToken\";          \n    uint8 public decimals = 18;             \n    string public symbol = \"TSKT\";                \n\n    constructor() {\n        owner = msg.sender;\n        balances[msg.sender] = 300000000;               // Give the creator 30% of all tokens\n        balances[address(this)] = totalSupply - balances[msg.sender];\n        tokenOfferCotation = 10**12 wei; // 0,000001 ether, ou R$0,02\n    }\n\n    \n    event SignedUpUser(address indexed _user, string _username);\n    event NewTaskInStaking(uint256 indexed _taskId, address indexed _owner);\n    event TaskDeletedFromStaking(uint256 indexed _taskId, address indexed _finisher);\n\n\n    //======= TOKEN P2P TRASFERS =======// \n    function transfer(address _to, uint256 _value) public override returns (bool success) {\n        require(balances[msg.sender] >= _value, \"token balance is lower than the value requested\");\n        balances[msg.sender] -= _value;\n        balances[_to] += _value;\n        emit Transfer(msg.sender, _to, _value); //solhint-disable-line indent, no-unused-vars\n        return true;\n    }\n    function transferFrom(address _from, address _to, uint256 _value) public override returns (bool success) {\n        uint256 allowanceAmount = allowed[_from][msg.sender];\n        require(balances[_from] >= _value && allowanceAmount >= _value, \"token balance or allowance is lower than amount requested\");\n        balances[_to] += _value;\n        balances[_from] -= _value;\n        if (allowanceAmount < MAX_UINT256) {\n            allowed[_from][msg.sender] -= _value;\n        }\n        emit Transfer(_from, _to, _value); //solhint-disable-line indent, no-unused-vars\n        return true;\n    }\n\n    //======= ACCOUNT & TRADE OPERATIONS =======// \n    function approve(address _spender, uint256 _value) public override returns (bool success) {\n        allowed[msg.sender][_spender] = _value;\n        emit Approval(msg.sender, _spender, _value); //solhint-disable-line indent, no-unused-vars\n        return true;\n    }\n    function allowance(address _owner, address _spender) public override view returns (uint256 remaining) {\n        return allowed[_owner][_spender];\n    }\n\n    //========= ACCOUNT CHECK ========//\n    function balanceOf(address _owner) public override view returns (uint256 balance) {\n        return balances[_owner];\n    }\n\n    //======= CONTRACT CRYPTO OFFER TOOLS =======// \n    function changeTokenOfferCotation(uint256 _newCotation) public{\n        require(msg.sender == owner, \"Only the contract owner can call it\");\n        tokenOfferCotation = _newCotation;\n    }\n    function changeBuyAvailability() public{\n        require(msg.sender == owner, \"Only the contract owner can call it\");\n        offerAvailable = !offerAvailable;\n    }\n\n    //======= CONTRACT ORDERS =======// \n    function buyFromContract(uint256 _amount) public payable{\n        require(offerAvailable == true, \"You can't buy tokens from the contract for now\");\n        require(msg.value >= _amount*tokenOfferCotation, string(abi.encodePacked(\"Ether quantity insufficient. Each TaskToken values: \",  uint2str(tokenOfferCotation), \" Weis (10^-18 ETH)\")));\n        uint256 restInContract = balances[address(this)];\n        require(restInContract >= _amount, string(abi.encodePacked(\"Tokens amount unavailable to buy. There is only \", uint2str(restInContract), \" tokens\")));\n        balances[msg.sender] += _amount;\n        balances[address(this)] -= _amount;\n    }\n\n\n    function userSignedUp(string memory _username) public{\n        emit SignedUpUser(msg.sender, _username);\n    }\n\n    function addTaskToStaking(uint256 _taskId) public{\n        require(taskOwner[_taskId].owner == msg.sender, \"This task doesn't belong you\");\n        require(balances[msg.sender] >= 1, \"You don't have TaskTokens enough to do this operation\");\n        require(taskOwner[_taskId].onStaking == false, \"This task is already in staking\");\n        balances[msg.sender] -= 1;\n        taskOwner[_taskId].onStaking = true;\n\n        emit NewTaskInStaking(_taskId, msg.sender);\n    }\n\n    function finishTask(uint256 _taskId) public{\n        bool passed = verifyIfIsTaskOwnerOrColaborator(_taskId);\n        require(passed, \"You're not a colaborator\");\n\n        delete taskOwner[_taskId];\n        balances[msg.sender] += 1;\n\n        emit TaskDeletedFromStaking(_taskId, msg.sender);\n    }\n\n    function taskIsInStaking(uint256 _taskId) public view returns(bool isInStaking){\n        return taskOwner[_taskId].onStaking;\n    }\n\n\n    //------------- HELPERS -------------//\n    function uint2str(uint _i) internal pure returns (string memory _uintAsString) {\n        if (_i == 0) {\n            return \"0\";\n        }\n        uint j = _i;\n        uint len;\n        while (j != 0) {\n            len++;\n            j /= 10;\n        }\n        bytes memory bstr = new bytes(len);\n        uint k = len;\n        while (_i != 0) {\n            k = k-1;\n            uint8 temp = (48 + uint8(_i - _i / 10 * 10));\n            bytes1 b1 = bytes1(temp);\n            bstr[k] = b1;\n            _i /= 10;\n        }\n        return string(bstr);\n    }\n\n\n    function verifyIfIsTaskOwnerOrColaborator(uint256 _taskId) internal view returns (bool _result){\n        address[] memory colaborators = taskOwner[_taskId].colaborators;\n        bool passed = false;\n        for (uint256 i = 0; i < colaborators.length; i++) {\n            if(colaborators[i] == msg.sender){\n                passed = true;\n            }\n        }\n        if(msg.sender == taskOwner[_taskId].owner){\n            passed = true;\n        }\n        return passed;\n    }\n}",
  "sourcePath": "/home/angelo/projects/schedule-all_blockchain-network/contracts/TaskToken.sol",
  "compiler": {
    "name": "solc",
    "version": "0.8.10+commit.fc410830.Emscripten.clang"
  },
  "schemaVersion": "3.4.4",
  "updatedAt": "2022-01-17T16:33:31.452Z",
  "networkType": "ethereum",
  "devdoc": {
    "kind": "dev",
    "methods": {
      "allowance(address,address)": {
        "params": {
          "_owner": "The address of the account owning tokens",
          "_spender": "The address of the account able to transfer the tokens"
        },
        "returns": {
          "remaining": "Amount of remaining tokens allowed to spent"
        }
      },
      "approve(address,uint256)": {
        "params": {
          "_spender": "The address of the account able to transfer the tokens",
          "_value": "The amount of wei to be approved for transfer"
        },
        "returns": {
          "success": "Whether the approval was successful or not"
        }
      },
      "balanceOf(address)": {
        "params": {
          "_owner": "The address from which the balance will be retrieved"
        },
        "returns": {
          "balance": "the balance"
        }
      },
      "transfer(address,uint256)": {
        "params": {
          "_to": "The address of the recipient",
          "_value": "The amount of token to be transferred"
        },
        "returns": {
          "success": "Whether the transfer was successful or not"
        }
      },
      "transferFrom(address,address,uint256)": {
        "params": {
          "_from": "The address of the sender",
          "_to": "The address of the recipient",
          "_value": "The amount of token to be transferred"
        },
        "returns": {
          "success": "Whether the transfer was successful or not"
        }
      }
    },
    "version": 1
  },
  "userdoc": {
    "kind": "user",
    "methods": {
      "approve(address,uint256)": {
        "notice": "`msg.sender` approves `_addr` to spend `_value` tokens"
      },
      "transfer(address,uint256)": {
        "notice": "send `_value` token to `_to` from `msg.sender`"
      },
      "transferFrom(address,address,uint256)": {
        "notice": "send `_value` token to `_to` from `_from` on the condition it is approved by `_from`"
      }
    },
    "version": 1
  }
}